{
  "contracts/Lock.sol": {
    "AreaOfShapes": {
      "abi": [
        {
          "inputs": [],
          "name": "area",
          "outputs": [
            {
              "internalType": "uint256",
              "name": "",
              "type": "uint256"
            }
          ],
          "stateMutability": "view",
          "type": "function"
        },
        {
          "inputs": [
            {
              "internalType": "uint256",
              "name": "length",
              "type": "uint256"
            },
            {
              "internalType": "uint256",
              "name": "breadth",
              "type": "uint256"
            }
          ],
          "name": "areaOfRectangle",
          "outputs": [],
          "stateMutability": "nonpayable",
          "type": "function"
        },
        {
          "inputs": [
            {
              "internalType": "uint256",
              "name": "length",
              "type": "uint256"
            }
          ],
          "name": "areaOfSquare",
          "outputs": [],
          "stateMutability": "nonpayable",
          "type": "function"
        },
        {
          "inputs": [
            {
              "internalType": "uint256",
              "name": "base",
              "type": "uint256"
            },
            {
              "internalType": "uint256",
              "name": "height",
              "type": "uint256"
            }
          ],
          "name": "areaOfTriangle",
          "outputs": [],
          "stateMutability": "nonpayable",
          "type": "function"
        }
      ],
      "evm": {
        "bytecode": {
          "linkReferences": {},
          "object": "608060405234801561001057600080fd5b5061032f806100206000396000f3fe608060405234801561001057600080fd5b506004361061004c5760003560e01c80634d41892f1461005157806360a89df41461006f578063924efd461461008b578063f8f1aacd146100a7575b600080fd5b6100596100c3565b604051610066919061013b565b60405180910390f35b61008960048036038101906100849190610187565b6100c9565b005b6100a560048036038101906100a091906101b4565b6100de565b005b6100c160048036038101906100bc91906101b4565b610100565b005b60005481565b80816100d59190610223565b60008190555050565b600281836100ec9190610223565b6100f69190610294565b6000819055505050565b808261010c91906102c5565b60026101189190610223565b6000819055505050565b6000819050919050565b61013581610122565b82525050565b6000602082019050610150600083018461012c565b92915050565b600080fd5b61016481610122565b811461016f57600080fd5b50565b6000813590506101818161015b565b92915050565b60006020828403121561019d5761019c610156565b5b60006101ab84828501610172565b91505092915050565b600080604083850312156101cb576101ca610156565b5b60006101d985828601610172565b92505060206101ea85828601610172565b9150509250929050565b7f4e487b7100000000000000000000000000000000000000000000000000000000600052601160045260246000fd5b600061022e82610122565b915061023983610122565b925082820261024781610122565b9150828204841483151761025e5761025d6101f4565b5b5092915050565b7f4e487b7100000000000000000000000000000000000000000000000000000000600052601260045260246000fd5b600061029f82610122565b91506102aa83610122565b9250826102ba576102b9610265565b5b828204905092915050565b60006102d082610122565b91506102db83610122565b92508282019050808211156102f3576102f26101f4565b5b9291505056fea264697066735822122004e85bdf3f043ce76e1ae6cdc62d9b3f969b9b6f98b6619fb87254f5d99691bc64736f6c63430008180033",
          "opcodes": "PUSH1 0x80 PUSH1 0x40 MSTORE CALLVALUE DUP1 ISZERO PUSH2 0x10 JUMPI PUSH1 0x0 DUP1 REVERT JUMPDEST POP PUSH2 0x32F DUP1 PUSH2 0x20 PUSH1 0x0 CODECOPY PUSH1 0x0 RETURN INVALID PUSH1 0x80 PUSH1 0x40 MSTORE CALLVALUE DUP1 ISZERO PUSH2 0x10 JUMPI PUSH1 0x0 DUP1 REVERT JUMPDEST POP PUSH1 0x4 CALLDATASIZE LT PUSH2 0x4C JUMPI PUSH1 0x0 CALLDATALOAD PUSH1 0xE0 SHR DUP1 PUSH4 0x4D41892F EQ PUSH2 0x51 JUMPI DUP1 PUSH4 0x60A89DF4 EQ PUSH2 0x6F JUMPI DUP1 PUSH4 0x924EFD46 EQ PUSH2 0x8B JUMPI DUP1 PUSH4 0xF8F1AACD EQ PUSH2 0xA7 JUMPI JUMPDEST PUSH1 0x0 DUP1 REVERT JUMPDEST PUSH2 0x59 PUSH2 0xC3 JUMP JUMPDEST PUSH1 0x40 MLOAD PUSH2 0x66 SWAP2 SWAP1 PUSH2 0x13B JUMP JUMPDEST PUSH1 0x40 MLOAD DUP1 SWAP2 SUB SWAP1 RETURN JUMPDEST PUSH2 0x89 PUSH1 0x4 DUP1 CALLDATASIZE SUB DUP2 ADD SWAP1 PUSH2 0x84 SWAP2 SWAP1 PUSH2 0x187 JUMP JUMPDEST PUSH2 0xC9 JUMP JUMPDEST STOP JUMPDEST PUSH2 0xA5 PUSH1 0x4 DUP1 CALLDATASIZE SUB DUP2 ADD SWAP1 PUSH2 0xA0 SWAP2 SWAP1 PUSH2 0x1B4 JUMP JUMPDEST PUSH2 0xDE JUMP JUMPDEST STOP JUMPDEST PUSH2 0xC1 PUSH1 0x4 DUP1 CALLDATASIZE SUB DUP2 ADD SWAP1 PUSH2 0xBC SWAP2 SWAP1 PUSH2 0x1B4 JUMP JUMPDEST PUSH2 0x100 JUMP JUMPDEST STOP JUMPDEST PUSH1 0x0 SLOAD DUP2 JUMP JUMPDEST DUP1 DUP2 PUSH2 0xD5 SWAP2 SWAP1 PUSH2 0x223 JUMP JUMPDEST PUSH1 0x0 DUP2 SWAP1 SSTORE POP POP JUMP JUMPDEST PUSH1 0x2 DUP2 DUP4 PUSH2 0xEC SWAP2 SWAP1 PUSH2 0x223 JUMP JUMPDEST PUSH2 0xF6 SWAP2 SWAP1 PUSH2 0x294 JUMP JUMPDEST PUSH1 0x0 DUP2 SWAP1 SSTORE POP POP POP JUMP JUMPDEST DUP1 DUP3 PUSH2 0x10C SWAP2 SWAP1 PUSH2 0x2C5 JUMP JUMPDEST PUSH1 0x2 PUSH2 0x118 SWAP2 SWAP1 PUSH2 0x223 JUMP JUMPDEST PUSH1 0x0 DUP2 SWAP1 SSTORE POP POP POP JUMP JUMPDEST PUSH1 0x0 DUP2 SWAP1 POP SWAP2 SWAP1 POP JUMP JUMPDEST PUSH2 0x135 DUP2 PUSH2 0x122 JUMP JUMPDEST DUP3 MSTORE POP POP JUMP JUMPDEST PUSH1 0x0 PUSH1 0x20 DUP3 ADD SWAP1 POP PUSH2 0x150 PUSH1 0x0 DUP4 ADD DUP5 PUSH2 0x12C JUMP JUMPDEST SWAP3 SWAP2 POP POP JUMP JUMPDEST PUSH1 0x0 DUP1 REVERT JUMPDEST PUSH2 0x164 DUP2 PUSH2 0x122 JUMP JUMPDEST DUP2 EQ PUSH2 0x16F JUMPI PUSH1 0x0 DUP1 REVERT JUMPDEST POP JUMP JUMPDEST PUSH1 0x0 DUP2 CALLDATALOAD SWAP1 POP PUSH2 0x181 DUP2 PUSH2 0x15B JUMP JUMPDEST SWAP3 SWAP2 POP POP JUMP JUMPDEST PUSH1 0x0 PUSH1 0x20 DUP3 DUP5 SUB SLT ISZERO PUSH2 0x19D JUMPI PUSH2 0x19C PUSH2 0x156 JUMP JUMPDEST JUMPDEST PUSH1 0x0 PUSH2 0x1AB DUP5 DUP3 DUP6 ADD PUSH2 0x172 JUMP JUMPDEST SWAP2 POP POP SWAP3 SWAP2 POP POP JUMP JUMPDEST PUSH1 0x0 DUP1 PUSH1 0x40 DUP4 DUP6 SUB SLT ISZERO PUSH2 0x1CB JUMPI PUSH2 0x1CA PUSH2 0x156 JUMP JUMPDEST JUMPDEST PUSH1 0x0 PUSH2 0x1D9 DUP6 DUP3 DUP7 ADD PUSH2 0x172 JUMP JUMPDEST SWAP3 POP POP PUSH1 0x20 PUSH2 0x1EA DUP6 DUP3 DUP7 ADD PUSH2 0x172 JUMP JUMPDEST SWAP2 POP POP SWAP3 POP SWAP3 SWAP1 POP JUMP JUMPDEST PUSH32 0x4E487B7100000000000000000000000000000000000000000000000000000000 PUSH1 0x0 MSTORE PUSH1 0x11 PUSH1 0x4 MSTORE PUSH1 0x24 PUSH1 0x0 REVERT JUMPDEST PUSH1 0x0 PUSH2 0x22E DUP3 PUSH2 0x122 JUMP JUMPDEST SWAP2 POP PUSH2 0x239 DUP4 PUSH2 0x122 JUMP JUMPDEST SWAP3 POP DUP3 DUP3 MUL PUSH2 0x247 DUP2 PUSH2 0x122 JUMP JUMPDEST SWAP2 POP DUP3 DUP3 DIV DUP5 EQ DUP4 ISZERO OR PUSH2 0x25E JUMPI PUSH2 0x25D PUSH2 0x1F4 JUMP JUMPDEST JUMPDEST POP SWAP3 SWAP2 POP POP JUMP JUMPDEST PUSH32 0x4E487B7100000000000000000000000000000000000000000000000000000000 PUSH1 0x0 MSTORE PUSH1 0x12 PUSH1 0x4 MSTORE PUSH1 0x24 PUSH1 0x0 REVERT JUMPDEST PUSH1 0x0 PUSH2 0x29F DUP3 PUSH2 0x122 JUMP JUMPDEST SWAP2 POP PUSH2 0x2AA DUP4 PUSH2 0x122 JUMP JUMPDEST SWAP3 POP DUP3 PUSH2 0x2BA JUMPI PUSH2 0x2B9 PUSH2 0x265 JUMP JUMPDEST JUMPDEST DUP3 DUP3 DIV SWAP1 POP SWAP3 SWAP2 POP POP JUMP JUMPDEST PUSH1 0x0 PUSH2 0x2D0 DUP3 PUSH2 0x122 JUMP JUMPDEST SWAP2 POP PUSH2 0x2DB DUP4 PUSH2 0x122 JUMP JUMPDEST SWAP3 POP DUP3 DUP3 ADD SWAP1 POP DUP1 DUP3 GT ISZERO PUSH2 0x2F3 JUMPI PUSH2 0x2F2 PUSH2 0x1F4 JUMP JUMPDEST JUMPDEST SWAP3 SWAP2 POP POP JUMP INVALID LOG2 PUSH5 0x6970667358 0x22 SLT KECCAK256 DIV 0xE8 JUMPDEST 0xDF EXTCODEHASH DIV EXTCODECOPY 0xE7 PUSH15 0x1AE6CDC62D9B3F969B9B6F98B6619F 0xB8 PUSH19 0x54F5D99691BC64736F6C634300081800330000 "
        },
        "methodIdentifiers": {
          "area()": "4d41892f",
          "areaOfRectangle(uint256,uint256)": "f8f1aacd",
          "areaOfSquare(uint256)": "60a89df4",
          "areaOfTriangle(uint256,uint256)": "924efd46"
        }
      }
    }
  }
}