{
  "_format": "hh-sol-artifact-1",
  "contractName": "AreaOfShapes",
  "sourceName": "contracts/Lock.sol",
  "abi": [
    {
      "inputs": [],
      "name": "area",
      "outputs": [
        {
          "internalType": "uint256",
          "name": "",
          "type": "uint256"
        }
      ],
      "stateMutability": "view",
      "type": "function"
    },
    {
      "inputs": [
        {
          "internalType": "uint256",
          "name": "length",
          "type": "uint256"
        },
        {
          "internalType": "uint256",
          "name": "breadth",
          "type": "uint256"
        }
      ],
      "name": "areaOfRectangle",
      "outputs": [],
      "stateMutability": "nonpayable",
      "type": "function"
    },
    {
      "inputs": [
        {
          "internalType": "uint256",
          "name": "length",
          "type": "uint256"
        }
      ],
      "name": "areaOfSquare",
      "outputs": [],
      "stateMutability": "nonpayable",
      "type": "function"
    },
    {
      "inputs": [
        {
          "internalType": "uint256",
          "name": "base",
          "type": "uint256"
        },
        {
          "internalType": "uint256",
          "name": "height",
          "type": "uint256"
        }
      ],
      "name": "areaOfTriangle",
      "outputs": [],
      "stateMutability": "nonpayable",
      "type": "function"
    }
  ],
  "bytecode": "0x608060405234801561001057600080fd5b5061032f806100206000396000f3fe608060405234801561001057600080fd5b506004361061004c5760003560e01c80634d41892f1461005157806360a89df41461006f578063924efd461461008b578063f8f1aacd146100a7575b600080fd5b6100596100c3565b604051610066919061013b565b60405180910390f35b61008960048036038101906100849190610187565b6100c9565b005b6100a560048036038101906100a091906101b4565b6100de565b005b6100c160048036038101906100bc91906101b4565b610100565b005b60005481565b80816100d59190610223565b60008190555050565b600281836100ec9190610223565b6100f69190610294565b6000819055505050565b808261010c91906102c5565b60026101189190610223565b6000819055505050565b6000819050919050565b61013581610122565b82525050565b6000602082019050610150600083018461012c565b92915050565b600080fd5b61016481610122565b811461016f57600080fd5b50565b6000813590506101818161015b565b92915050565b60006020828403121561019d5761019c610156565b5b60006101ab84828501610172565b91505092915050565b600080604083850312156101cb576101ca610156565b5b60006101d985828601610172565b92505060206101ea85828601610172565b9150509250929050565b7f4e487b7100000000000000000000000000000000000000000000000000000000600052601160045260246000fd5b600061022e82610122565b915061023983610122565b925082820261024781610122565b9150828204841483151761025e5761025d6101f4565b5b5092915050565b7f4e487b7100000000000000000000000000000000000000000000000000000000600052601260045260246000fd5b600061029f82610122565b91506102aa83610122565b9250826102ba576102b9610265565b5b828204905092915050565b60006102d082610122565b91506102db83610122565b92508282019050808211156102f3576102f26101f4565b5b9291505056fea264697066735822122004e85bdf3f043ce76e1ae6cdc62d9b3f969b9b6f98b6619fb87254f5d99691bc64736f6c63430008180033",
  "linkReferences": {},
  "deployedLinkReferences": {}
}